:020000040800F2
:10000000D0080020AD4E0008B5030008B703000873
:10001000BB030008BF030008C30300080000000082
:10002000000000000000000000000000C7030008FE
:10003000C903000800000000CB030008CD0300083E
:10004000C74E0008C74E0008C74E0008C74E00083C
:10005000C74E0008C74E0008C74E0008C74E00082C
:10006000C74E0008C74E0008C74E0008C74E00081C
:10007000C74E0008C74E0008C74E0008C74E00080C
:10008000C74E0008C74E0008C74E0008C74E0008FC
:10009000C74E0008C74E0008C74E0008C74E0008EC
:1000A000C74E0008C74E0008C74E0008C74E0008DC
:1000B000C74E0008C74E0008C74E0008C74E0008CC
:1000C000C74E0008C74E0008C74E0008C74E0008BC
:1000D000C74E0008274C0008C74E0008C74E00084E
:1000E000C74E0008C74E0008C74E0008C74E00089C
:1000F000C74E0008C74E0008C74E0008C74E00088C
:10010000C74E0008C74E0008174D0008C74E00082C
:10011000C74E0008C74E0008C74E0008C74E00086B
:10012000C74E0008C74E0008C74E0008C74E00085B
:1001300000F002F800F062F80AA090E8000C824497
:100140008344AAF10107DA4501D100F057F8AFF274
:10015000090EBAE80F0013F0010F18BFFB1A43F0A5
:1001600001031847349F0000549F00000A444FF0D9
:10017000000C10F8013B13F0070408BF10F8014B06
:100180001D1108BF10F8015B641E05D010F8016B4B
:10019000641E01F8016BF9D113F0080F1EBF10F8AF
:1001A000014BAD1C0C1B09D16D1E58BF01F801CBD2
:1001B000FAD505E014F8016B01F8016B6D1EF9D555
:1001C0009142D6D37047000000230024002500266A
:1001D000103A28BF78C1FBD8520728BF30C148BFAA
:1001E0000B607047642906F0DB83782906F01484DD
:1001F000002070471FB51FBD10B510BD06F068FE8A
:100200001146FFF7F7FF00F009F806F086FE03B489
:10021000FFF7F2FF03BC04F0ABFC000004F03EFC6F
:1002200000F0C6F900F0DEF98F2142F20F7000F005
:1002300083FA002141F61F4000F04EFE4FF4E130FA
:1002400004F0A5FC04F0A7FA00F0A7FF05E0C82021
:1002500004F061FC45A006F06FFB03F0F3F9002801
:10026000F5D146A006F068FB472142F20F7004F07A
:1002700027FD04F0DDF900F007FC002000F055FC3C
:1002800000F0C6FD03E04149414803F028FA01208F
:1002900000F0C3F90628F6D13E4A00213E4804F09A
:1002A00092FA3B48006804F086FA01203B49087046
:1002B0003748006808F054F9041E01DB204600E0CE
:1002C000604285B201232A4606214E2000F060FDDF
:1002D0004AE03348028801230321182000F058FD2A
:1002E0003048028801230321512000F051FD2E499E
:1002F000086908F051F984B201232246042118202C
:1003000000F046FD28494869284908F0C5F9054626
:1003100008F042F984B2012322460521182000F09A
:1003200037FD2149886908F037F984B20123224654
:100330000621182000F02CFD1D48006808F010F977
:10034000041E01DB204600E0604285B201232A46FC
:1003500005214E2000F01CFD012000F05EF901286F
:1003600002D100200D490870B3E700006D707536AA
:10037000303530204572726F720D0A006D7075361F
:10038000303530204F4B0D0A0000000004000020E3
:100390000000002000007A440000344308000020E0
:1003A0002408004024040040800100200000204177
:1003B00018010020704700BFFEE700BFFEE700BF46
:1003C000FEE700BFFEE770477047704770470000C8
:1003D0000CB50020019000906C48006840F480301B
:1003E0006A49086000BF6948006800F40030009066
:1003F0000198401C0190009818B90198B0F5A06FC1
:10040000F1D16248006800F4003010B10120009082
:1004100001E0002000900098012843D15C4800686A
:1004200040F010005A4908600846006820F00300B8
:1004300008600846006840F00200086053484068C1
:10044000524948600846406848600846406840F4A1
:10045000806048600846406820F47C104860084688
:10046000406840F4E81048600846006840F080703A
:10047000086000BF4548006800F000700028F9D00F
:100480004248406820F00300404948600846406800
:1004900040F00200486000BF3C48406800F00C009B
:1004A0000828F9D10CBD10B5FFF792FF10BD10B5AB
:1004B0003648006840F0010034490860084640684A
:1004C00034490840314948600846006832490840CC
:1004D0002E4908600846006820F48020086008461D
:1004E000406820F4FE0048604FF41F008860FFF76A
:1004F000DAFF4FF000602949086010BD10B50021F7
:1005000000200022214B5B6803F00C0121B104297B
:1005100006D0082928D107E0214B224C236027E090
:100520001F4B204C236023E0184B5B6803F47010D2
:10053000164B5B6803F48032022303EB904022B930
:10054000194B4343174C23600DE0104B5B6803F4D9
:10055000003323B1144B4343124C236003E0104B90
:100560004343104C236003E00D4B0E4C236000BF4F
:1005700000BF064B5B68C3F303130C4CE15C094BF3
:100580001B68CB40074C236010BD000000100240E8
:10059000002002400000FFF8FFFFF6FE08ED00E03B
:1005A00000127A000C00002000093D00100000201D
:1005B00008B50121202005F023F80420ADF8000043
:1005C00010208DF8030003208DF8020069460448CE
:1005D00004F05AFD0421024804F003FE08BD0000A7
:1005E0000014014008B50121142005F009F872201B
:1005F000ADF8000048208DF8030069464B4804F030
:1006000043FD4FF44050ADF8000048208DF8030042
:100610006946474804F038FD08BD10B5044614B1DA
:1006200001204449087043480078002852D04021F6
:100630003E4804F0BCFDD0B14FF480513C4804F07A
:10064000B6FDA0B12021394804F0B1FD78B14FF4D6
:100650000051374804F0ABFD48B11021334804F095
:10066000A6FD20B10221314804F0A1FD88BB0A207B
:1006700004F051FA00202F49087040212B4804F063
:1006800096FD08B9012010BD4FF48051284804F0B0
:100690008EFD08B90220F6E72021244804F087FDEA
:1006A00008B90320EFE74FF40051214804F07FFD23
:1006B00008B90420E7E710211C4804F078FD08B9C8
:1006C0000520E0E70221194804F071FD58BB06201F
:1006D000D9E7FFE74021154804F069FD01281FD044
:1006E0004FF48051124804F062FD012818D02021F7
:1006F0000E4804F05CFD012812D04FF400510C4864
:1007000004F055FD01280BD01021084804F04FFDDE
:10071000012805D00221054804F049FD012802D135
:100720000120044908700020ADE7000000080140E6
:10073000001001402000002030B589B005460C466D
:100740000121022004F069FF0121082004F058FF74
:100750000220ADF8200018208DF8230003208DF82A
:10076000220008A9154804F08FFC0221134804F068
:100770003AFDADF81850ADF814400020ADF81A005D
:10078000ADF8160005A90E4805F072F86020ADF826
:1007900004000120ADF806000020ADF80C0001A90E
:1007A000074805F07CF90821054805F00CFD0121FA
:1007B000034805F0B9FB09B030BD0000000C014052
:1007C0000004004010B5012004F081F910BD08B507
:1007D0000121082004F014FF4FF44070ADF8000030
:1007E00010208DF8030003208DF802006946FC48B4
:1007F00004F04AFC4FF44071F94804F0F2FC08BDE3
:1008000010B5F748001D006820F0F000F449091DFC
:1008100008600846006840F0300008600120F14997
:100820000860F149C1F8A001FFF7CCFF0020ED49B5
:100830000860FFF7C7FF0020EB49C1F8A00110BD19
:1008400010B5E748001D006820F0F000E449091DDC
:1008500008600846006840F0300008600020E14968
:10086000091F0860E049C1F8A401FFF7ABFF0120B0
:10087000DC49091F0860FFF7A5FF0120DA49C1F82C
:10088000A401FFF79FFF10BD10B50020D549091F37
:100890000860D348001D006820F0F000D049091D11
:1008A00008600846006840F0300008600020CE492B
:1008B000C1F8A401FFF786FF0120CA49091F08609B
:1008C000FFF780FF0020C849C1F8A00110BD10B596
:1008D0000020C449091F0860C148001D006820F0BD
:1008E000F000BF49091D08600846006840F030006C
:1008F00008600120BC49C1F8A401FFF763FF012093
:10090000B849091F0860FFF75DFF0020B649C1F82C
:10091000A00110BD10B50024B148001D006820F0F2
:10092000F000AF49091D08600846006840F08000EB
:1009300008600120AB490860FFF744FF0120AA4985
:10094000C1F8A001FFF73EFF07E0601CC4B2FA2C1B
:1009500003DDFFF775FF012010BDA2488038006855
:100960000028F2D19F49091F086000BFF4E770B565
:1009700004469B48001D006820F0F0009849091DBE
:1009800008600846006840F0300008600020954983
:10099000091F0860002514E0FFF714FFE0099149E2
:1009A00008606006040EFFF70DFF01208E49C1F8B4
:1009B000A001FFF707FF00208A49091F0860681C93
:1009C000C5B2082DE8DBFFF7FDFE70BD70B505462A
:1009D00000248348001D006820F0F0008049091DB4
:1009E00008600846006840F080000860002615E0B6
:1009F00000207C49091F0860FFF7E4FE01207A49C6
:100A0000C1F8A0016006040E76488038006808B17D
:100A1000601CC4B2FFF7D6FE701CC6B2082EE7DB1E
:100A200015B9FFF754FF01E0FFF72EFF204670BD18
:100A300010B50446FFF7E4FE7820FFF798FFFFF7B4
:100A400069FF0020FFF793FFFFF764FF2046FFF7E1
:100A50008EFFFFF75FFFFFF7F3FE10BD10B50446F2
:100A6000FFF7CEFE7820FFF782FFFFF753FF40200D
:100A7000FFF77DFFFFF74EFF2046FFF778FFFFF7F8
:100A800049FFFFF7DDFE10BD10B5FFF7A0FE6420A3
:100A900004F041F8A820FFF7CBFF3F20FFF7C8FF85
:100AA000D320FFF7C5FF0020FFF7C2FF4020FFF76C
:100AB000BFFFA120FFF7BCFFC820FFF7B9FFDA2076
:100AC000FFF7B6FF1220FFF7B3FF8120FFF7B0FF5B
:100AD0007F20FFF7ADFFA420FFF7AAFFA620FFF7B6
:100AE000A7FFD520FFF7A4FF8020FFF7A1FF8D20EF
:100AF000FFF79EFF1420FFF79BFFAF20FFF798FF43
:100B000010BD70B504460D4605F1B001C8B2FFF73F
:100B10008FFF102141EA1410FFF78AFF04F00F0144
:100B200041F00100FFF784FF70BD70B50646002458
:100B300015E004F1B001C8B2FFF77AFF0020FFF71B
:100B400077FF1020FFF774FF002504E03046FFF721
:100B500085FF681CC5B2802DF8DB601CC4B2082C70
:100B6000E7DB70BD10B50020FFF7DFFF10BD10B54B
:100B70008D20FFF75DFF1420FFF75AFFAF20FFF72E
:100B800057FF10BD10B58D20FFF752FF1020FFF763
:100B90004FFFAE20FFF74CFF10BD2DE9F047064692
:100BA000894617469A464FF0000800240025BAF1FE
:100BB000010F03D0BAF1020F64D12BE026E0785D7B
:100BC000203800F0FF087E2E04DD002609F1010028
:100BD00000F0FF0949463046FFF793FF00240FE07D
:100BE000000C0140A48121420080214208EB480111
:100BF000B04A02EB4101085DFFF730FF601CC4B250
:100C0000062CF3DBB01DC6B2681CC5B2785D0028A7
:100C1000D5D137E032E0785D203800F0FF08782E3B
:100C200004DD002609F1010000F0FF0949463046C5
:100C3000FFF767FF002407E004EB08119E4A505CB1
:100C4000FFF70CFF601CC4B2082CF5DB09F10100B2
:100C5000C1B23046FFF755FF002408E004EB08114D
:100C60000831954A505CFFF7F9FE601CC4B2082CAD
:100C7000F4DB06F10800C6B2681CC5B2785D002836
:100C8000C9D100BF00BFBDE8F0872DE9F041804623
:100C90000E46174600247D0131464046FFF731FFDE
:100CA00000BF06E08549485DFFF7D8FE6D1C601C5B
:100CB000C4B2102CF6DB701CC1B24046FFF721FF16
:100CC000002406E07D49485DFFF7C8FE6D1C601CEE
:100CD000C4B2102CF6DBBDE8F0812DE9F0470646E2
:100CE0000F469046994600250024B9F1010F03D024
:100CF000B9F1020F49D11AE008F11000C5B27E2EF9
:100D000002DD0026781CC7B239463046FFF7F9FEEF
:100D1000002409E005EB4501664A02EB4101085D4C
:100D2000FFF79CFE601CC4B2062CF3DB2DE008F13B
:100D30001000C5B2782E02DD0026781CC7B23946F5
:100D40003046FFF7DEFE002407E004EB05115A4AA7
:100D5000505CFFF783FE601CC4B2082CF5DB781CE6
:100D6000C1B23046FFF7CDFE002408E004EB0511C8
:100D70000831514A505CFFF771FE601CC4B2082C68
:100D8000F4DB06F10800C6B200BF00BFBDE8F08783
:100D90002DE9FF470746884615469946002435B990
:100DA0004B462A4641463846FFF797FF2EE00BE0B8
:100DB0000A2095FBF0F100FB11504DF824000A20A9
:100DC00095FBF0F085B2641C0A2DF1DA4DF8245041
:100DD0002646002418E0301B0AD5062101FB0471C9
:100DE000C8B24B466FF00F024146FFF776FF0AE0AC
:100DF000311B5DF82120062101FB0471C8B24B466E
:100E00004146FFF76AFF641C052CE4DBBDE8FF8761
:100E100010B502234F2200210846FFF75EFF022390
:100E2000502200210820FFF758FF02235122002101
:100E30001020FFF752FF012200211820FFF725FFA5
:100E4000022200212820FFF720FF03220021382062
:100E5000FFF71BFF042200214820FFF716FF0022A6
:100E600011466F20FFF711FF012315A20421062070
:100E7000FFF793FE012313A205210620FFF78DFE45
:100E8000012311A206210846FFF787FE01230FA2C6
:100E900004213F20FFF781FE01230DA205213F2001
:100EA000FFF77BFE01230BA206213F20FFF775FE13
:100EB00010BD0000828A0008B68C000821000020C6
:100EC0006B703A006B693A006B643A0054413A0027
:100ED00054563A0044613A0030B589B005460C4694
:100EE0000121C80204F08CFB0121142004F088FBCE
:100EF0004FF41060ADF8200018208DF82300032077
:100F00008DF8220008A95A4804F0BEF84FF4106189
:100F1000574804F068F90820ADF8200010208DF83B
:100F2000230008A9524804F0AFF80821504804F003
:100F30005AF94FF47060ADF8200008A94D4804F04C
:100F4000A3F84FF470614B4804F04DF9ADF8185018
:100F5000ADF814400020ADF81A00ADF8160005A950
:100F6000454804F085FC6020ADF804000120ADF890
:100F700006000020ADF80C0001A93F4804F08FFDE9
:100F800001A93D4804F0B1FC08213B4805F01BF9DC
:100F90000821394805F0F8F80121374804F0C4FF6A
:100FA0000121354804F0CCFF09B030BD01203349A0
:100FB00008607047002031490860704710B504464A
:100FC00001202F49086000202E49C1F8AC012146BC
:100FD000294805F047FA10BD10B5044600202849FD
:100FE000086001202749C1F8AC012146224805F0DC
:100FF00039FA10BD10B504460120214908390860AE
:1010000000202049C1F8A40121461B4805F024FA1C
:1010100010BD10B5044600201949083908600120A8
:101020001849C1F8A4012146134805F015FA10BD6E
:1010300010B50446012011490860002C03DBA0B262
:10104000FFF7BCFF03E0614288B2FFF7C5FF10BDA8
:1010500010B50446012009490860002C03DBA0B24A
:10106000FFF7C8FF03E0614288B2FFF7D2FF10BD6F
:101070000008014000100140002C01408C01214279
:10108000A80122420000224270B505460C4600F03D
:10109000EDF9D02000F094FA00F025FA18B100F034
:1010A00003FA012070BD284600F08AFA00F01BFA0E
:1010B000204600F085FA00F016FA18B100F0F4F9B5
:1010C0000120EFE700F0F0F90020EBE770B50446EF
:1010D0000025BC2C01DB012510E0622C01DB022580
:1010E0000CE02A2C01DB032508E0142C01DB04258D
:1010F00004E00A2C01DB052500E0062529461A201C
:10110000FFF7C2FF70BD70B50446B4F57A7F01DD0C
:101110004FF47A74042C00DA04244FF47A7090FBB4
:10112000F4F0401EC5B229461920FFF7ADFF054671
:10113000264604EBD671C1F34F00FFF7C7FF70BD21
:1011400070B5044600F092F9D02000F039FA00F0B2
:10115000CAF9204600F034FA00F0C5F900F086F92B
:10116000D12000F02DFA00F0BEF9002000F051FA75
:10117000054600F099F9284670BD10B50446E00612
:10118000010E1C20FFF780FF10BD10B50446E006DD
:10119000010E1B20FFF778FF10BD38B5012108466E
:1011A00004F02EFA0121042004F02AFA4FF4004042
:1011B000ADF8000010208DF8030003208DF8020028
:1011C0006946954803F060FF0121944804F02DF82A
:1011D00000209349086000F032F980216B20FFF76E
:1011E00053FF642003F097FC00216B20FFF74CFFB6
:1011F0000320FFF7CAFF0020FFF7BFFF3220FFF7F1
:1012000082FF00213820FFF73FFF00216A20FFF70F
:101210003BFF00212320FFF737FF80213720FFF716
:1012200033FF7520FFF78CFF0446682C0BD101219A
:101230006B20FFF729FF00216C20FFF725FF3220EC
:10124000FFF761FF01E0012038BD0020FCE72DE938
:10125000F04106460F4614461D4600F007F90021EE
:1012600041EA4601C8B200F0ABF900F03CF920B108
:1012700000F01AF90120BDE8F081384600F0A0F92D
:1012800000F031F900F0F2F8012101EB4601C8B29B
:1012900000F096F900F027F90DE0012C04D10020B0
:1012A00000F0B7F9287003E0012000F0B2F92870CF
:1012B000601EC4B26D1C002CEFD100F0F5F80020C8
:1012C000D9E72DE9F84F6B46022241216820FFF74C
:1012D000BEFF9DF801009DF8001040EA01200FFAC2
:1012E00080FA504606F049FC804600224D4B06F03D
:1012F000BDFA06464C4A4D4B06F0FCF9044606F092
:10130000C7F983464A49584607F0C6F9044607F02C
:1013100027F900B2BDE8F88F2DE9FC4104460D46DF
:1013200016466B46062243216820FFF790FF0746CA
:10133000BFB99DF801009DF8001040EA012000B2FD
:1013400020809DF803009DF8021040EA012000B2C1
:1013500028809DF805009DF8041040EA012000B2A5
:1013600030803846BDE8FC812DE9FC4104460D463D
:1013700016466B4606223B216820FFF768FF0746AA
:10138000BFB99DF801009DF8001040EA012000B2AD
:1013900020809DF803009DF8021040EA012000B271
:1013A00028809DF805009DF8041040EA012000B255
:1013B00030803846BDE8FC812DE9F04105460E46F7
:1013C0001746984600F052F8002141EA4501C8B29C
:1013D00000F0F6F800F087F820B100F065F8012081
:1013E000BDE8F081304600F0EBF800F07CF8002416
:1013F0000CE018F8040000F0E3F800F074F818B1FD
:1014000000F052F80120EBE7601CC4B2BC42F0DBF4
:1014100000F04AF80020E3E7000801400002300035
:10142000BC01214200407540A4703D0AD7434240B0
:101430000000C84210B5022003F049FB10BD08B5FA
:101440000121102004F0DCF83020ADF8000010205D
:101450008DF8030003208DF802006946854803F0EB
:1014600013FE3021834803F0BCFE08BD10B581484F
:10147000006820F470007F4908600846006840F466
:101480004010086001207C4908607C49C1F8900147
:10149000FFF7D0FF002078490860FFF7CBFF00205E
:1014A0007649C1F8900110BD10B57248006820F46B
:1014B0007000704908600846006840F440100860F9
:1014C00000206D49091F08606C49C1F89401FFF7BD
:1014D000B1FF01206849091F08606849C1F89401FB
:1014E000FFF7A8FF10BD10B500246248006820F483
:1014F0007000604908600846006840F40000086019
:1015000001205D490860FFF795FF01205B49C1F8A4
:101510009001FFF78FFF07E0601CC4B2FA2C03DDD7
:10152000FFF7C2FF012010BD534880380068002833
:10153000F2D15149091F086000BFF4E710B500203F
:101540004D49091F08604B48006820F47000494964
:1015500008600846006840F44010086000204749D1
:10156000C1F89401FFF766FF01204349091F086095
:10157000FFF760FF00204149C1F8900110BD10B590
:1015800000203D49091F08603A48006820F47000B7
:10159000384908600846006840F44010086001209F
:1015A0003649C1F89401FFF745FF01203249091F70
:1015B0000860FFF73FFF00203049C1F8900110BDDF
:1015C00070B504462B48006820F470002949086073
:1015D0000846006840F44010086000202649091FB2
:1015E0000860002512E0E009234908606006040E47
:1015F00001202249C1F89001FFF71CFF00201E497D
:10160000091F0860FFF716FF681CC5B2082DEADB4A
:1016100070BD70B5054600241648006820F47000BF
:10162000144908600846006840F40000086000267D
:1016300015E000201049091F0860FFF7FBFE01209C
:101640000E49C1F890016006040E0B48803800680E
:1016500008B1601CC4B2FFF7EDFE701CC6B2082EC4
:10166000E7DB15B9FFF78BFF01E0FFF767FF2046C7
:1016700070BD00000010014094012242000022428F
:1016800038B50446F74890F82400C0B114B10220E0
:10169000009001E000200090F24A1268D17BF14AEC
:1016A000526810786B460122FFF786FE10B14FF0AA
:1016B000FF3038BD9DF80010EA48417423E0E94846
:1016C000807A10B94FF0FF30F3E724B1E548407C51
:1016D00008B10020EDE714B10120009001E00020E6
:1016E0000090E04A1268D17BDE4A526810786B465F
:1016F0000122FFF761FE10B14FF0FF30D9E79DF8EE
:101700000010D84841740020D3E738B500241FE00A
:10171000D4480068C07AA04204D0D2480068407D16
:10172000A04200D112E0CF49496808786B460122F7
:101730002146FFF78CFD10B14FF0FF3038BD9DF80A
:1017400000202146C8A005F0F7F800BF601CC4B215
:10175000C44840680079A042DADC0020EEE770B5AA
:1017600004460D46BF480068C07AA04204D0BD4878
:101770000068407DA04202D14FF0FF3070BDB948F3
:1017800040680079A04202DC4FF0FF30F6E7B5492F
:10179000496808782B4601222146FFF758FDEDE7FE
:1017A00038B50446AF4890F82300A04201D100208C
:1017B00038BD14B13020009001E000200090A9480D
:1017C000807C20B19DF8000040F002000090A54808
:1017D00090F8220020B19DF8000040F080000090B9
:1017E000A04A1268117D9F4A526810786B46012208
:1017F000FFF7E2FD10B14FF0FF30D9E7994880F8CC
:1018000023400020D4E738B5044604F0700010B13E
:101810000120009005E014B10020009001E040207C
:101820000090904A1268917C8E4A526810786B46FC
:101830000122FFF7C1FD20B100218A488172481EB4
:1018400038BD9DF8000020F040018648017300205B
:10185000009004F0400020B99DF8000040F0040022
:10186000009004F0200020B99DF8000040F0020034
:10187000009004F0100020B99DF8000040F0010035
:10188000009004F0080020B99DF8000040F03800F6
:101890000090744A1268D17C724A526810786B4684
:1018A0000122FFF789FD20B100216E488172481E98
:1018B000C6E724B1082C02D00020FFF771FF694869
:1018C000847200210175322003F025F90020B7E76A
:1018D00038B504466348807CA04201D1002038BD61
:1018E000002C46D05F4A126811795E4A526810781F
:1018F0006B460122FFF7ABFC10B14FF0FF30EEE773
:101900009DF8000020F020000090564A12681179DE
:10191000544A526810786B460122FFF74DFD10B112
:101920004FF0FF30DBE7032003F0F5F802200090D2
:101930004C4890F8220020B19DF8000040F0800053
:101940000090484890F8230020B19DF8000040F036
:1019500030000090434A1268117D424A5268107864
:101960006B460122FFF728FD002851D04FF0FF30D1
:10197000B5E73C4A126811793A4A526810786B46CA
:101980000122FFF764FC10B14FF0FF30A7E73548A4
:10199000807A00F0010028B19DF8000040F020009E
:1019A000009004E09DF8000020F0200000902D4AF7
:1019B000126811792B4A526810786B460122FFF7A2
:1019C000FBFC10B14FF0FF3089E7032003F0A3F8D0
:1019D000244890F8220010B18020009001E00020FF
:1019E0000090204890F8230020B19DF8000040F0BE
:1019F000300000901B4A1268117D1A4A5268107814
:101A00006B460122FFF7D8FC10B14FF0FF3066E7BC
:101A100014488474002062E708B51248807A10B92F
:101A20004FF0FF3008BD002000900E4A1268D17BB5
:101A30000C4A526810786B460122FFF7BDFC10B1CA
:101A40004FF0FF30EEE7074A12685179054A5268B5
:101A500010786B460122FFF7AFFC68B14FF0FF3002
:101A6000E0E70000C4000020252335783A20252334
:101A700035780D0A00000000F84A12681179F74A1B
:101A8000526810786B460122FFF796FC10B14FF0B8
:101A9000FF30C7E7F14890F82400002853D00C200D
:101AA0000090EE4A12681179EC4A526810786B4641
:101AB0000122FFF781FC10B14FF0FF30B2E7322076
:101AC00003F029F8C0200090E448807A00F001007B
:101AD00020B19DF8000040F020000090DF4A12681D
:101AE0001179DE4A526810786B460122FFF764FCD8
:101AF00010B14FF0FF3095E7D848407C10B102207C
:101B0000009001E000200090D44A1268D17BD34AB3
:101B1000526810786B460122FFF74EFC10B14FF06F
:101B2000FF307FE700200090CC4A12685179CB4A01
:101B3000526810786B460122FFF73EFC002855D012
:101B40004FF0FF306EE704200090C44A126811790C
:101B5000C24A526810786B460122FFF72DFC10B183
:101B60004FF0FF305EE7BD48807C20B9BB48807AEB
:101B700000F0010010B94020009001E060200090CA
:101B8000B64A12681179B54A526810786B4601223C
:101B9000FFF712FC10B14FF0FF3043E7322002F0A4
:101BA000BAFFAE48407C10B10120009001E0002057
:101BB0000090AA4A1268D17BA84A526810786B46F6
:101BC0000122FFF7F9FB10B14FF0FF302AE7A34ADB
:101BD00012685179A14A52681078A04B1033012243
:101BE000FFF7EAFB10B14FF0FF301BE7002019E7C9
:101BF00070B50446002624F00104984890F82400AB
:101C000008B1002070BD9548807A10B94FF0FF30C0
:101C1000F8E79248057C807A20409049087408468D
:101C2000007CA04202D04FF0FF3600E0002614B93D
:101C30008A48007D18B10120FFF722FD02E0002054
:101C4000FFF71EFD3CB1FFF7E7FE20B183480574A6
:101C50004FF0FF30D6E73046D4E738B504467F482A
:101C6000807A10B94FF0FF3038BDBC2C02DB012068
:101C7000009015E0622C02DB0220009010E02A2C7C
:101C800002DB032000900BE0142C02DB0420009008
:101C900006E00A2C02DB0520009001E006200090FF
:101CA0006E48C07A9DF80010884201D10020DBE721
:101CB0006A4A12689178694A526810786B46012224
:101CC000FFF77AFB10B14FF0FF30CDE79DF8001021
:101CD0006248C1720020C7E738B50446282C02DDEF
:101CE0004FF0FF3038BDDCB90020FFF759FD002070
:101CF0008DF8000007208DF80100584A1268917C89
:101D0000564A526810786B460222FFF755FB10B115
:101D10004FF0FF30E6E70021504801750020E1E771
:101D20000120FFF73DFD20208DF80000012C06D199
:101D300000208DF801000520FFF78FFF17E0052C2C
:101D400006DC01208DF801000520FFF786FF0EE07C
:101D5000142C06DC02208DF801000A20FFF77DFF1D
:101D600005E003208DF801001420FFF776FF9DF8B1
:101D70000100072101EB8010C0B28DF80100374A45
:101D80001268917C354A526810786B460222FFF740
:101D900013FB10B14FF0FF30A4E708212F488172E8
:101DA00000210173012101750020FFF721FF0020B0
:101DB00098E738B504462948807A10B94FF0FF30CB
:101DC00038BD264890F8240010B14FF0FF30F7E7F7
:101DD0002248007D50B134B1282C04DCE0B2FFF77A
:101DE0007BFF0020ECE70020FFF776FF042C01DAF0
:101DF000042404E0B4F57A7F01DD4FF47A744FF4E3
:101E00007A7090FBF4F0401EC0B20090134A126842
:101E10005178124A526810786B460122FFF7CCFACB
:101E200010B14FF0FF30CBE79DF80000401C4FF49D
:101E30007A7191FBF0F081B20848C1810146C989ED
:101E40004810FFF70AFF0020BAE738B504460348F8
:101E5000807A28B94FF0FF3038BD0000C400002060
:101E6000022C06D0042C07D0082C08D0102C0CD142
:101E700008E0002000900BE00820009008E010200F
:101E8000009005E01820009002E04FF0FF30E3E7FB
:101E900000BFF948407A9DF80010B0EBE10F01D186
:101EA0000020D9E7F44A1268D179F34A52681078D1
:101EB0006B460122FFF780FA10B14FF0FF30CBE7FD
:101EC0009DF80000C110EC4841720020C4E738B50D
:101ED0000446E948807A10B94FF0FF3038BDFA2C3B
:101EE00009D0B4F5FA7F09D0B4F57A7F09D0B4F5FA
:101EF000FA6F0CD108E0002000900BE00820009061
:101F000008E01020009005E01820009002E04FF05B
:101F1000FF30E3E700BFD848007A9DF80010B0EB2F
:101F2000E10F01D10020D9E7D34A12689179D24A52
:101F3000526810786B460122FFF73EFA10B14FF05D
:101F4000FF30CBE79DF80000C010CB49087200209D
:101F5000C4E71CB580208DF80000C74A1268917C48
:101F6000C54A526810786B460122FFF725FA10B176
:101F70004FF0FF301CBD642002F0CDFD00208DF835
:101F80000000BD4A1268917CBB4A526810786B46CB
:101F90000122FFF711FA10B14FF0FF30EAE7B64A1D
:101FA0001268917DB44A526810786B460622FFF79A
:101FB0004EF910B14FF0FF30DCE79DF80500C00787
:101FC000400F9DF8031001F0010140EA41009DF827
:101FD000011001F0010140EA010494B1012C03D188
:101FE0000121A548C17431E0022C03D10021A2488F
:101FF000C1742BE02146A1A004F09EFC4FF0FF30FD
:10200000B8E79D4A1268D1789B4A526810786B46AF
:102010000122FFF71CF910B14FF0FF30AAE79DF83D
:10202000000000F00F042CB99E4804F085FC4FF02E
:10203000FF309FE7042C06D19BA004F07DFC01211A
:102040008D48C17402E000218B48C174FF218A4889
:102050008172FF2088490872FF2187484172C1724E
:102060004FF6FF71C181FF21017481740121017359
:1020700080F82210002180F8231041750175163078
:10208000016041608160163880F8241080F82510C6
:10209000C1844FF4FA60FFF71AFF10B14FF0FF3020
:1020A00068E70220FFF7D1FE10B14FF0FF3061E783
:1020B0002A20FFF7D2FD10B14FF0FF305AE732204F
:1020C000FFF777FE10B14FF0FF3053E70020FFF726
:1020D0008FFD10B14FF0FF304CE70020FFF7F8FB09
:1020E00010B14FF0FF3045E70020FFF78CFB0020D8
:1020F00040E770477CB504460D465F48807A00F0A3
:10210000700010B94FF0FF307CBD5B4A1268117B44
:10211000594A526810786B460622FFF798F810B1BA
:102120004FF0FF30F0E79DF801009DF8001040EA05
:10213000012000B220809DF803009DF8021040EAC3
:10214000012000B260809DF805009DF8041040EA6F
:10215000012000B2A08015B12846FFF7CAFF002079
:10216000D2E77CB504460D464348807A00F008006B
:1021700010B94FF0FF307CBD3F4A1268517B3E4A98
:10218000526810786B460622FFF761F810B14FF0E5
:10219000FF30F0E79DF801009DF8001040EA0120B3
:1021A00000B220809DF803009DF8021040EA012053
:1021B00000B260809DF805009DF8041040EA0120FF
:1021C00000B2A08015B12846FFF793FF0020D2E7A8
:1021D0002DE9FE4F05460C462748807A18B94FF086
:1021E000FF30BDE8FE8F244A1268917B224A526874
:1021F000107802AB0222FFF72AF810B14FF0FF303F
:10220000EFE79DF809009DF8081040EA012006B2AA
:1022100014B12046FFF76DFF17494968C88806F0DA
:10222000F3F9154901904968B1F9080006F0D4F9AD
:102230008346304606F0D0F95946009006F034FB4C
:102240008246019906F096F881461F4906F024F867
:1022500080464FF08F4106F01FFA074606F080F9DE
:1022600028600020BDE710B588B004461CB94FF0C7
:10227000FF3008B010BD29E0C4000020556E737512
:1022800070706F7274656420736F667477617265C5
:102290002070726F64756374207265762025642ED9
:1022A0000A00000048A0000848616C662073656E53
:1022B0007369746976697479207061727420666FCD
:1022C000756E642E0A00000000000C42206830B9D0
:1022D000606820B9A06810B9002008B010BDFA49A4
:1022E0004968087806AB03221146FEF7B0FF10B12B
:1022F0004FF0FF30F1E79DF81800082101EB2010A6
:1023000000F00F00ADF800009DF8190001EB20105F
:1023100000F00F00ADF802009DF81A0001EB20104C
:1023200000F00F00ADF8040020684100BDF9000086
:10233000403091FBF0F000B2ADF810006068410051
:10234000BDF90200403091FBF0F000B2ADF8120090
:10235000A0684100BDF90400403091FBF0F000B2EC
:10236000ADF81400D8494968087806AB0622114632
:10237000FEF76DFF10B14FF0FF30AEE79DF819008A
:102380009DF8181040EA012000B2ADF808009DF851
:102390001B009DF81A1040EA012000B2ADF80A00B7
:1023A0009DF81D009DF81C1040EA012000B2ADF818
:1023B0000C00BDF81000BDF80810084400B2ADF8DC
:1023C0001000BDF81200BDF80A10084400B2ADF8C4
:1023D0001200BDF81400BDF80C10084400B2ADF8AE
:1023E0001400BDF81000000A8DF81800BDF81000A8
:1023F000C0B28DF81900BDF81200000A8DF81A005D
:10240000BDF81200C0B28DF81B00BDF81400000A20
:102410008DF81C00BDF81400C0B28DF81D00AA494B
:102420004968087806AB06221146FEF7C5FF10B1D1
:102430004FF0FF3051E700204FE70146A248007AF5
:1024400030B1012807D0022809D003280FD10AE0B3
:10245000FA2008800EE04FF4FA7008800AE04FF48A
:102460007A70088006E04FF4FA60088002E00020ED
:10247000088000BF00BF0020704701469248407AA4
:1024800030B1012807D0022808D003280CD108E079
:10249000022008700BE00420087008E00820087093
:1024A00005E01020087002E04FF0FF30704700BFD9
:1024B0008548C07C18B108784006000E08700020DE
:1024C000F4E701468048C07A082817D2DFE800F018
:1024D0001704070A0D101318BC20088013E06220AF
:1024E000088010E02A2008800DE0142008800AE00F
:1024F0000A20088007E00520088004E000BF00BF34
:102500000020088000BF00BF0020704701466E48D1
:1025100090F8240010B14FF0FF3070476A48C0892E
:1025200008800020F9E7014600200880401E70471F
:1025300001464FF0FF30704701466348007A30B1E2
:10254000012807D0022808D003280CD108E05F48F2
:1025500008600BE05E48086008E05E48086005E03F
:102560005D48086002E04FF0FF30704700BF002078
:10257000FBE701465448407A30B1012808D00228D0
:102580000AD0032810D10BE04FF4804008800EE001
:1025900041F69C7008800AE04FF48050088006E005
:1025A0004FF40060088002E04FF0FF30704700BF3A
:1025B0004548C07C10B10888401008800020F5E72D
:1025C00001464148007C08700020704701463E48A3
:1025D000807A10B10120087001E00020087000200E
:1025E000704738B504463848807A10B94FF0FF304C
:1025F00038BD354A1268117C334A526810786B46F0
:102600000222FEF724FE10B14FF0FF30F0E79DF8F4
:1026100001009DF8001040EA012000B22080002057
:10262000E6E72DE9FE4F0746884692461D46DDF84F
:1026300030B000260024244890F8240010B1601E19
:10264000BDE8FE8F002028701F48807A10B94FF037
:10265000FF30F5E71C48007C10B94FF0FF30EFE782
:102660001948007C00F0400008B1B01CC6B2164802
:10267000007C00F0200008B1B01CC6B21248007CFB
:1026800000F0100008B1B01CC6B20F48007C00F08A
:10269000080008B1B01DC6B20B4A1268917A0A4A06
:1026A000526810786B460222FEF7D1FD10B14FF050
:1026B000FF30C5E79DF801009DF8001040EA0129B0
:1026C000B1450BDA0020BBE7C40000200000034343
:1026D000000083423333034233338341FC48406874
:1026E0004088B9EB600F17DDF94A1268517CF84A4F
:1026F000526810786B460122FEF7A9FD10B14FF029
:10270000FF309DE79DF8000000F0100020B1FFF7BA
:1027100083F96FF0010093E75046FFF7EAFCEC4ABB
:102720001268D17AEA4A526810786B463246FEF750
:102730008EFD10B14FF0FF3082E799FBF6F0401E9E
:102740008BF8000000202870B4422AD0E048007CBA
:1027500000F0080028B3601C1DF800001DF80410EC
:1027600040EA012000B2A8F80000E01C1DF80010AB
:10277000A01C1DF8000041EA002000B2A8F80200E9
:10278000601D1DF80010201D1DF8000041EA00200A
:1027900000B2A8F80400287840F008002870A01DB6
:1027A00084B2B44213D0CA48007C00F0400070B13B
:1027B000601C1DF800001DF8041040EA012000B262
:1027C0003880287840F040002870A01C84B2B442C1
:1027D00013D0BF48007C00F0200070B1601C1DF8D1
:1027E00000001DF8041040EA012000B2788028782B
:1027F00040F020002870A01C84B2B44213D0B4482A
:10280000007C00F0100070B1601C1DF800001DF885
:10281000041040EA012000B2B880287840F010008F
:102820002870A01C84B200200AE7F8B504460F46C1
:102830001646A74890F8240010B94FF0FF30F8BDB5
:10284000A348807A10B94FF0FF30F8E7A04A126829
:10285000917A9F4A526810786B460222FEF7F7FC85
:1028600010B14FF0FF30EAE79DF801009DF800102D
:1028700040EA0125A54203DA00203070401EDEE761
:10288000934840684088B5EB600F17DD904A1268A6
:10289000517C8F4A526810786B460122FEF7D7FCB4
:1028A00010B14FF0FF30CAE79DF8000000F01000B3
:1028B00020B1FFF7B1F86FF00100C0E7E2B2844B3E
:1028C0001B68D97A824B5B6818783B46FEF7BFFCE1
:1028D00010B14FF0FF30B2E795FBF4F0401E3070BE
:1028E0000020ACE701467A4880F8221000207047AB
:1028F0007CB5054676494968087801AB04220D216C
:10290000FEF7A5FC08B107207CBD9DF80700C0F3C9
:1029100001109DF8041001F0E00140EAE1008DF89B
:1029200000009DF80700C0F381009DF8051001F03C
:10293000E00140EAE1008DF801009DF8070000F099
:1029400003009DF8061001F0E00140EAE1008DF877
:10295000020000241CE01DF8040018B9002045F80E
:10296000240013E05B4845F8240006E055F82400F5
:10297000594905F091FE45F824001DF80400401E59
:10298000C0B20DF804000028F0D100BF601CC4B232
:10299000032CE0DB0020B7E72DE9FE4F06460F468B
:1029A00000256846FFF7A4FF002442E056F8240003
:1029B00057F82410A0EB010ABAF1000F01DB5146D1
:1029C00001E0CAF10001084605F006FE83464FF01B
:1029D0008F4105F0CFFC80465DF82400002105F012
:1029E0008BFD16D05DF82410404605F0C3FC8246EE
:1029F0004FF07E5105F058FF814629F0004A3748D4
:102A0000416A504605F014FF12D20120A040054350
:102A10000EE03248C169404605F00AFE05D32F4852
:102A2000016A404605F004FF02D20120A0400543A0
:102A3000641C032CBADB2846BDE8FE8F2DE9FC5F41
:102A400006460F46002522494968087801AB032253
:102A50000D21FEF7FCFB10B10720BDE8FC9F9DF89F
:102A6000040000F01F008DF804009DF8050000F040
:102A70001F008DF805009DF8060000F01F008DF87E
:102A80000600002462E056F8240057F82410A0EB5A
:102A9000010BBBF1000F01DB594601E0CBF1000156
:102AA000084605F099FD4FF08F41009005F062FC5B
:102AB000814601A8005DC0B30849086805F0A4FD7F
:102AC00083465946064805F055FC80460FE0000055
:102AD000C40000207B14AE3E1D5A843F00930008C2
:102AE00000B04C45FE49404605F0D6FD804601A8A1
:102AF000005D401EC0B201A908550028F2D1414630
:102B0000484605F037FC83464FF07E5105F0CCFE79
:102B100082462AF0004BF3488169584605F088FE4A
:102B200013D20120A04005430FE0FFE7ED48016903
:102B3000484605F07DFD05D3EA484169484605F061
:102B400077FE02D20120A0400543641C032C9ADBCF
:102B5000284682E72DE9F04F87B005460C4691469E
:102B600001208DF8100000208DF81100DE4A126857
:102B7000917CDD4A5268107804AB0222FEF71CFCFF
:102B800020B14FF0FF3007B0BDE8F08FC82001F052
:102B9000C2FF00208DF81000D34A1268D17BD24AC0
:102BA0005268107804AB0122FEF706FC10B14FF01A
:102BB000FF30E8E7CC4A12685179CB4A5268107866
:102BC00004AB0122FEF7F8FB10B14FF0FF30DAE75B
:102BD000C54A1268917CC44A5268107804AB01223D
:102BE000FEF7EAFB10B14FF0FF30CCE7BE4A1268A7
:102BF000D17DBD4A5268107804AB0122FEF7DCFBA0
:102C000010B14FF0FF30BEE7B74A12681179B64AEB
:102C10005268107804AB0122FEF7CEFB10B14FF0E2
:102C2000FF30B0E70C208DF81000AF4A1268117920
:102C3000AD4A5268107804AB0122FEF7BDFB10B11B
:102C40004FF0FF309FE70F2001F065FFA648806A34
:102C5000407A8DF81000A44A12689178A24A52680E
:102C6000107804AB0122FEF7A7FB10B14FF0FF3044
:102C700089E79D48806A007A8DF810009A4A1268A8
:102C80005178994A5268107804AB0122FEF794FB00
:102C900010B14FF0FF3076E7B9F1000F07D092483E
:102CA000806A807A40F0E0008DF8100004E08E48E1
:102CB000806A807A8DF810008B4A126891798A4A6E
:102CC0005268107804AB0122FEF776FB10B14FF08A
:102CD000FF3058E7B9F1000F07D08348806AC07A07
:102CE00040F0E0008DF8100003E07E48C07A8DF8D7
:102CF00010007D4A1268D1797B4A5268107804AB83
:102D00000122FEF759FB10B14FF0FF303BE7B9F15C
:102D1000000F02D0C82001F0FEFE40208DF8100008
:102D2000714A12681179704A5268107804AB012216
:102D3000FEF742FB10B14FF0FF3024E778208DF80A
:102D40001000694A12685179674A5268107804ABDA
:102D50000122FEF731FB10B14FF0FF3013E761495C
:102D6000888901F0D8FE00208DF810005E4A1268B4
:102D700051795D4A5268107804AB0122FEF71CFBC2
:102D800010B14FF0FF30FEE6574A1268917A564A6A
:102D90005268107804AB0222FEF759FA10B14FF0D6
:102DA000FF30F0E69DF811009DF8101040EA012B6D
:102DB0000C209BFBF0F0C6B20020A8606860286081
:102DC000A06060602060824665E0474A1268D17A60
:102DD000454A5268107804AB0C22FEF738FA10B15D
:102DE0004FF0FF30CFE69DF811009DF8101040EA3B
:102DF000012000B2ADF808009DF813009DF81210F4
:102E000040EA012000B2ADF80A009DF815009DF8D7
:102E1000141040EA012000B2ADF80C00BDF9081012
:102E2000206808442060BDF90A10606808446060AA
:102E3000BDF90C10A0680844A0609DF817009DF82B
:102E4000161040EA012000B2ADF800009DF819000C
:102E50009DF8181040EA012000B2ADF802009DF87C
:102E60001B009DF81A1040EA012000B2ADF80400E2
:102E7000BDF90010286808442860BDF90210686890
:102E800008446860BDF90410A8680844A8600AF105
:102E9000010000F0FF0AB24597DB1248D0F800C0ED
:102EA0002868C117090441EA10410704624600235B
:102EB000384603F01CFD32460023CDE9020103F041
:102EC00016FD28600748D0F800C06868C1170904DB
:102ED00041EA1041070462460023384606E000003C
:102EE00054E3853F00930008C400002003F0FFFC7A
:102EF00032460023CDE9020103F0F9FC6860FE4888
:102F0000D0F800C0A868C117090441EA10410704BD
:102F100062460023384603F0EAFC32460023CDE93E
:102F2000020103F0E4FCA860F348D0F804C0216873
:102F3000C817000440EA11480F04624600233846CF
:102F4000414603F0D4FC32460023CDE9020103F0F0
:102F5000CEFC2060E848D0F804C06068C1170904BE
:102F600041EA1041070462460023384603F0BFFCE3
:102F700032460023CDE9020103F0B9FC6060DE486F
:102F8000D0F804C0A068C117090441EA1041070441
:102F900062460023384603F0AAFC32460023CDE9FE
:102FA000020103F0A4FCA060A068002804DDA06872
:102FB000A0F58030A06003E0A06800F58030A0603C
:102FC0000020E0E538B50446CC4890F82400A04243
:102FD00001D1002038BD24B3C84890F8250010B9AD
:102FE0004FF0FF30F6E70020FEF74AFB0020FEF727
:102FF0006FFCC249C88CFEF7DCFE00200090BF4980
:10300000496808786B4601222321FEF7D5F9012192
:10301000BA4880F824100120FEF732FBFEF7FCFCD2
:1030200013E00020FEF72CFBB448007C0090B3496D
:10303000496808786B4601222321FEF7BDF900217B
:10304000AE4880F82410FEF7E7FC0020C2E72DE927
:10305000F04F8DB083460F4602200C90A74890F8A1
:10306000240020B10020FFF7ADFF012600E000267C
:1030700003A8FFF7E2F905A8FFF7FFF901A8FFF79A
:1030800020FA02A8FFF742FA9C4890F80AA004A888
:10309000FFF796FA002407E0002239465846FFF76A
:1030A00059FD00B902E0641C022CF5DB00BF022CC4
:1030B00001D1002528E0002407E0012206A909A883
:1030C000FFF748FD00B902E0641C022CF5DB00BFED
:1030D000022C01D1002517E006A93846FFF75CFC59
:1030E00000F0FF0809A95846FFF7A8FC00F0FF0907
:1030F0000025B9F1000F01D145F00105B8F1000F2D
:1031000001D145F0020500BFFF207C490872FF2174
:103110007A484172C1724FF6FF71C181FF218172FD
:10312000017401210173BDF80C00FEF7D0FE9DF87B
:103130001400FEF78AFEBDF80400FEF78EFDBDF810
:103140000800FEF736FE5046FEF75DFB9DF81000C6
:10315000FEF74EFD16B10120FFF734FF28460DB0F3
:10316000BDE8F08FF8B504460D46164616B94FF087
:10317000FF30F8BD6148807A10B94FF0FF30F8E7B2
:1031800020128DF80000E0B28DF801009DF80100DA
:1031900028445A4949684989884202DD4FF0FF3086
:1031A000E7E7564A1268117E544A526810786B4617
:1031B0000222FEF701F910B14FF0FF30D9E7EAB271
:1031C0004E4B1B68597D4D4B5B6818783346FEF7B4
:1031D000F3F810B14FF0FF30CBE70020C9E7F8B5A6
:1031E00004460D46164616B94FF0FF30F8BD434869
:1031F000807A10B94FF0FF30F8E720128DF8000008
:10320000E0B28DF801009DF8010028443B4949686F
:103210004989884202DD4FF0FF30E7E7374A1268FC
:10322000117E364A526810786B460222FEF7C4F8C7
:1032300010B14FF0FF30D9E7EAB2304B1B68597D2F
:103240002E4B5B6818783346FEF701F810B14FF04B
:10325000FF30CBE70020C9E72DE9F04385B00546F4
:103260000E4690469946254890F8250020B14FF02B
:10327000FF3005B0BDE8F08316B94FF0FF30F8E736
:10328000002423E0281B102801DD102000E0281B6B
:1032900087B2321939462046FFF764FF10B14FF06C
:1032A000FF30E6E701AA39462046FFF798FF10B144
:1032B0004FF0FF30DDE730193A4601A903F074FC06
:1032C00010B16FF00100D4E7E01984B2AC42D9DB51
:1032D0004FEA28208DF8000008F0FF008DF801006B
:1032E000064A1268917E054A526810786B4602229F
:1032F000FEF762F838B103E000930008C400002034
:103300004FF0FF30B5E70121FE4880F82510A0F806
:1033100026900020ADE70146FA4890F82400087096
:10332000002070474FF0FF30704702464FF0FF30EB
:10333000704701464FF0FF307047F8B505460F461D
:103340001446002C70D0B5F5FF5F01DDFF2605E0C7
:10335000202D01DA012601E0C5F3471607B9012740
:10336000282C02DD4FF0FF30F8BDE648407D28BB39
:10337000E44890F8240038B10020FFF723FE012133
:10338000E04880F8201003E00021DE4880F820109B
:10339000DC481630FFF751F8DA481830FFF76DF8BF
:1033A000D8481A30FFF78DF8D6481C30FFF7AEF832
:1033B000D448817A81771F30FFF702F90020FEF7A9
:1033C0005FF90020FEF788FC00208DF80000CD4A50
:1033D00012689178CB4A526810786B460122FDF74B
:1033E000EBFF10B14FF0FF30BEE740208DF800003A
:1033F000C44A1268D17BC34A526810786B460122D6
:10340000FDF7DAFF00B165E08DF800608DF801701E
:10341000BC4A1268117ABB4A526810786B46022285
:10342000FDF7CAFF08B155E047E0052001F073FB46
:10343000B448407A072101EBC000C0B28DF800000B
:10344000B04A1268D179AF4A526810786B460122AF
:10345000FDF7B2FF00B13DE020208DF80000012C07
:1034600003D100208DF801000EE0052C03DC0120C3
:103470008DF8010008E0142C03DC02208DF8010017
:1034800002E003208DF801009DF80100072101EB07
:103490008010C0B28DF801009A4A1268917C994A56
:1034A000526810786B460222FDF786FF00B111E0EA
:1034B000012194484175002056E7924A16320021B6
:1034C00003E0505C00B105E0491C0C29F9D34FF032
:1034D000FF3049E7FF208B490872FF21894841727C
:1034E000C1724FF6FF71C181FF2181720174012108
:1034F00001730146887FFEF786F98249C88AFEF784
:10350000E6FC8049087EFEF7A0FC7E49488BFEF76A
:10351000A4FB7C49888BFEF74CFC7A49C87FFEF7F8
:1035200067FB784890F8200010B10120FFF74AFDB2
:10353000002174484175002016E770B588B002A9D3
:1035400005A8FFF784FD0446032C3ED101A8FEF731
:10355000F3FF059805F040F80646019905F09CF840
:10356000054604F0FDFF0590069805F035F806467F
:10357000019905F091F8054604F0F2FF06900798CE
:1035800005F02AF80646019905F086F8054604F08C
:10359000E7FF079005A800F02EFA6846FEF7E9FF5E
:1035A000BDF80010029848430290BDF8001003983F
:1035B00048430390BDF8001004984843049002A8C3
:1035C00000F0ACFA002008B070BD0120FBE7014616
:1035D00091F90020002A01DD00201EE091F9002071
:1035E000002A01DA042018E091F90120002A01DD07
:1035F000012012E091F90120002A01DA05200CE0F7
:1036000091F90220002A01DD022006E091F9022052
:10361000002A01DA062000E00720704710B50446B2
:103620002046FFF7D4FF0346E01CFFF7D0FF43EA34
:10363000C00083B2A01DFFF7CAFF43EA801083B227
:10364000184610BD70B50024FDF7F9FEFEF781FCA9
:10365000002840D17820FEF7D6F8C4B20CB1012082
:1036600070BD7820FEF7C4FAC4B20CB10220F7E7AF
:103670006420FEF79EFBC4B20CB10320F0E700F01B
:103680001FF9C4B20CB10420EAE71F48FFF7C6FFD8
:10369000054600F01FF9C4B20CB10520E0E740F286
:1036A000731000F058FDC4B20CB10620D8E76420B6
:1036B00000F0CAFAC4B20CB10720D1E7FFF73DFF12
:1036C00004460CB10820CBE70120FFF77BFCC4B215
:1036D0001CB10920C4E70A20C2E70020C0E72DE999
:1036E000F04F97B083468A464FF07E5016900020E8
:1036F0001590149013900CA80DA912AB08AACDE94F
:10370000001003E0C4000020F00000200EA910A863
:1037100000F080FE18B1012017B0BDE8F08FBDF8B1
:10372000340000F4807000287ED0089804F054FF24
:1037300004464FF09D4104F01DFE1690099804F0D8
:103740004BFF04464FF09D4104F014FE15900A987B
:1037500004F042FF04464FF09D4104F00BFE14902C
:103760000B9804F039FF04464FF09D4104F002FE2F
:1037700013904FF08040169904F08EFF0490149936
:1037800004F08AFF06904FF04040159904F084FF42
:103790000490139904F080FF0590069904F07CFDD5
:1037A000079004F04DFD804603F044FC06464FF0C0
:1037B0006632404B04F034FA044603F069FFCBF85C
:1037C00000004FF08040149904F066FF01901499B6
:1037D00004F062FF80464FF04040159904F05CFF12
:1037E0000190159904F058FF8146414605F05CF8B8
:1037F00007464FF07E5104F04FFD044604F020FDD3
:10380000CDE904014FF08040169904F045FF814650
:10381000159904F041FF07464FF08040149904F0D9
:103820003BFF8146139900E040E004F035FF8046FD
:10383000394604F031FD044604F002FDCDE90201F1
:10384000DDE9042303F03EFE4FF06632194BCDE96B
:10385000060104F0E5F9054603F01AFFCAF8000076
:10386000DAF8000004F0ECFC04460022134604F0F1
:103870009BF908D81048DAF8001005F015F8CAF8D6
:103880000000002048E7DAF8000004F0D9FC044604
:103890000022134604F0C2FA0AD20848DAF80010EF
:1038A00005F002F8CAF80000002035E7022033E7EF
:1038B000002031E766A64C40000034C300003443CA
:1038C00010B5C8234FF48062F74940F6F630FFF791
:1038D000C3FC10BD10B586B00446F4A00068039088
:1038E000F3A000680290F3A000680190F2A00068C5
:1038F000009004F0030003A9085C8DF8140003A8ED
:10390000C4F3C101405C8DF8150003A8C4F3811114
:10391000405C8DF8160004F0030002A9085C8DF8E5
:10392000100002A8C4F3C101405C8DF8110002A888
:10393000C4F38111405C8DF8120005AA032140F206
:103940002640FFF70FFC18B14FF0FF3006B010BD56
:1039500004AA032140F22A40FFF704FC10B14FF003
:10396000FF30F3E7019805900098049004F00400FC
:1039700058B19DF8140040F001008DF814009DF836
:10398000100040F001008DF8100004F0200058B144
:103990009DF8150040F001008DF815009DF811000C
:1039A00040F001008DF8110004F4807058B19DF8CA
:1039B000160040F001008DF816009DF8120040F04E
:1039C00001008DF8120005AA03214FF48860FFF76B
:1039D000C9FB10B14FF0FF30B8E704AA032140F251
:1039E0003140FFF7BFFB10B14FF0FF30AEE7B348F7
:1039F00004810020AAE71FB50446B048007A00F011
:103A0000030054F820000190AC48007A00F0040054
:103A100010B1019840420190A848007AC0F3C1005B
:103A200054F820000290A548007A00F0200010B160
:103A3000029840420290A148007AC0F3811054F8E5
:103A4000200003909D48008900F4807010B1039815
:103A5000404203909A49019880FB0101800F40EA9F
:103A6000810001909649029880FB0110820042EA91
:103A7000917002909249039880FB0110820042EA03
:103A8000917003900198000E8DF800000198000CD1
:103A90008DF801000198000A8DF802000198C0B26B
:103AA0008DF803006A4604214FF47470FFF75AFB47
:103AB00018B14FF0FF3004B010BD0298000E8DF821
:103AC00000000298000C8DF801000298000A8DF8A1
:103AD00002000298C0B28DF803006A4604214FF438
:103AE0007570FFF73FFB10B14FF0FF30E3E703982D
:103AF000000E8DF800000398000C8DF8010003986B
:103B0000000A8DF802000398C0B28DF803006A46DF
:103B100004214FF47670FFF725FBCCE770B588B031
:103B2000064601A8FEF725FDBDF804000021C903E3
:103B300041EA5045C4036148007A00F0030056F89A
:103B4000200005905D48007A00F0040010B105984F
:103B5000404205905948007AC0F3C10056F8200051
:103B600006905648007A00F0200010B106984042B6
:103B700006905248007AC0F3811056F82000079052
:103B80004E48008900F4807010B1079840420790B9
:103B90000598C117A0FB042301FB043100FB0510AD
:103BA000810041EA927005900698C117A0FB04239A
:103BB00001FB043100FB0510810041EA9270069080
:103BC0000798C117A0FB042301FB043100FB05107B
:103BD000810041EA927007900598000E8DF8080068
:103BE0000598000C8DF809000598000A8DF80A0068
:103BF0000598C0B28DF80B000698000E8DF80C00E9
:103C00000698000C8DF80D000698000A8DF80E003D
:103C10000698C0B28DF80F000798000E8DF81000BE
:103C20000798000C8DF811000798000A8DF8120013
:103C30000798C0B28DF8130002AA0C214FF425702A
:103C4000FFF790FA08B070BD30B585B004461DA2EC
:103C500007CA02AB07C3C82C03DD4FF0FF3005B025
:103C600030BDC82090FBF4F0401E85B2280A8DF8C4
:103C70000000E8B28DF801006A46022140F21620E9
:103C8000FFF770FA10B14FF0FF30E8E702AA0C21FD
:103C900040F6C120FFF766FA10B14FF0FF30DEE7C3
:103CA000064884810020DAE7289300084CCD6C0098
:103CB0000CC92C00365676002646660044010020CA
:103CC00009E3CA02FEF2ABC4AAF1DFDFBBAFDFDF5C
:103CD0000146FC4880890880002070472DE9FC4798
:103CE00006460F4606F0070010B1B7F5C86F03DDB2
:103CF0004FF0FF30BDE8FC87384604F085FC814674
:103D0000F14904F037FB80466846FEF7B6FB9DF8A4
:103D10000000022806D0042816D0082826D0102833
:103D200048D135E04FF08D41404604F0B5FC814666
:103D300004F032FC84B2E549404604F0ADFC814613
:103D400004F02AFC85B238E04FF08C41404604F084
:103D5000A3FC814604F020FC84B2DD49404604F017
:103D60009BFC814604F018FC85B226E04FF08B41A5
:103D7000404604F091FC814604F00EFC84B2D54923
:103D8000404604F089FC814604F006FC85B214E04C
:103D90004FF08A41404604F07FFC814604F0FCFB72
:103DA00084B2CD49404604F077FC814604F0F4FB30
:103DB00085B202E04FF0FF309CE700BF20128DF883
:103DC0000400E0B28DF8050028128DF80600E8B274
:103DD0008DF8070006F00100A0B101AA02214FF4FE
:103DE000EA70FFF7BFF910B14FF0FF3082E70DF135
:103DF000060202214FF49270FFF7B4F910B14FF0B0
:103E0000FF3077E706F00200A0B101AA02214FF4CB
:103E1000EC70FFF7A7F910B14FF0FF306AE70DF132
:103E2000060202214FF49470FFF79CF910B14FF095
:103E3000FF305FE706F00400A0B101AA02214FF4B1
:103E4000EE70FFF78FF910B14FF0FF3052E70DF130
:103E5000060202214FF49670FFF784F910B14FF07B
:103E6000FF3047E7002045E738B5044600200090C2
:103E700004F0010020B19DF8000040F030000090F7
:103E800004F0020020B19DF8000040F00C0000900A
:103E900004F0040020B19DF8000040F00300009001
:103EA0006A4601214FF4A470FFF75CF938BD38B5BC
:103EB0000446012C01DA012402E0042C00DD042474
:103EC000601EC0B200906A46012140F24F10FFF719
:103ED00049F938BD38B50446052094FBF0F085B2A9
:103EE00028128DF80000E8B28DF801006A46022120
:103EF0004FF4EF70FFF736F938BD38B504460520AA
:103F000094FBF0F085B228128DF80000E8B28DF82D
:103F100001006A4602214FF4ED70FFF723F938BD26
:103F2000F8B505460E464FF47A7095FBF0F000FBAD
:103F300006F4200E8DF80000200C8DF80100200AF8
:103F40008DF80200E0B28DF803006A4604214FF4B8
:103F5000AE70FFF707F9F8BD38B50446052094FBAD
:103F6000F0F084B220128DF80000E0B28DF801006C
:103F70006A4602214FF4AD70FFF7F4F838BD38B54A
:103F80000446052094FBF0F084B220128DF8000066
:103F9000E0B28DF801006A4602214FF4AC70FFF7E1
:103FA000E1F838BD38B5044614B94FF0FF3038BDDC
:103FB0006A4604214FF45870FFF711F910B14FF021
:103FC000FF30F4E79DF8000000069DF8011040EA7C
:103FD00001409DF8021040EA01209DF803100843BB
:103FE00020600020E3E738B50446200E8DF800007D
:103FF000200C8DF80100200A8DF80200E0B28DF847
:1040000003006A4604214FF45870FFF7ABF838BD3F
:1040100038B5044614B94FF0FF3038BD6A46042164
:104020004FF47170FFF7DBF810B14FF0FF30F4E799
:104030009DF8000000069DF8011040EA01409DF83F
:10404000021040EA01209DF80310084300EB8000B5
:10405000800020600020E0E738B504461420B4FB5F
:10406000F0F4200E8DF80000200C8DF80100200ADD
:104070008DF80200E0B28DF803006A4604214FF487
:104080007170FFF76FF838BD38B5044664B1202071
:104090008DF8000028208DF8010030208DF80200F6
:1040A00038208DF8030004E0A3220421684602F0C2
:1040B000A7FD6A46042140F69E20FFF753F8FDF75E
:1040C000ABFC38BD440100200000484300004046DE
:1040D0000000C045000040450000C04438B504461B
:1040E00064B1C0208DF80000C2208DF80100C4200A
:1040F0008DF80200C6208DF8030004E08B22042115
:10410000684602F07DFD6A46042140F69820FFF7DC
:1041100029F8FDF781FC38BD3EB504466CB1FDA120
:10412000D1E900208968CDE9002002916A46092181
:104130004FF49760FFF716F83EBDF9A2D2E90010E0
:104140009268CDE9010200916A4609214FF4976017
:10415000FFF708F8F0E73EB5044602208DF80000AE
:10416000CA208DF80100E3208DF8020009208DF8A7
:1041700003006A4604216820FEF7F4FFA3208DF8AF
:10418000000004F0400048B1C0208DF80100C820B4
:104190008DF80200C2208DF8030006E0A3208DF800
:1041A00001008DF802008DF8030004F4C07048B1DE
:1041B000C4208DF80400CC208DF80500C6208DF8B1
:1041C000060006E0A3208DF804008DF805008DF8A8
:1041D0000600A3208DF807008DF808008DF809006F
:1041E0006A460A2140F6A720FEF7BCFF04F0030050
:1041F00018B120208DF8000002E0D8208DF80000D2
:104200006A46012140F6B620FEF7ACFF04F020001C
:1042100018B10120FFF780FF02E00020FFF77CFFCC
:1042200004F4C07008B304F4807060B1B2208DF85B
:1042300000008B208DF80100B6208DF802009B2035
:104240008DF803000BE0B0208DF8000080208DF881
:104250000100B4208DF8020090208DF803006A461A
:10426000042140F6A220FEF77DFF04F0010020B3F8
:10427000F8208DF800006A4601214FF40B60FEF72C
:1042800071FFFA210720FFF729FD0720FFF7ECFD5A
:104290000120FFF70CFE6420FFF71CFE4FF4FA70BC
:1042A000FFF72BFEC821A148FFF73AFE2820FFF7B1
:1042B00053FE0A20FFF763FE08E0D8208DF80000C7
:1042C0006A4601214FF40B60FEF74CFF04F0020038
:1042D00018B1D9208DF8000002E0D8208DF8000038
:1042E0006A46012140F23D70FEF73CFF04F00400F5
:1042F00018B10120FFF7F2FE02E00020FFF7EEFE0A
:1043000004F0100018B10120FFF7BEFE02E000200B
:10431000FFF7BAFE44F0080085494881FDF77CFBB1
:1043200000208349887304F0400018B10846807B60
:10433000801D887304F4C07020B17D48807B801D8F
:104340007B49887304F0140020B17948807B1030D9
:104350007749887304F0030020B17548807B001D05
:104360007349887300203EBD01467148408908802A
:10437000002070472DE9F0410446E07800F0C006C7
:10438000E07800F03F05607800F0010098B1EF1090
:104390002846E91705EB5171C910A5EBC101491C6D
:1043A00001F0FF086248006820B161484146026898
:1043B0003846904700BF607800F0080030B15C4894
:1043C000406818B1B0115A4A516888470020BDE8CA
:1043D000F08110B586B0044656A207CA03AB07C3E6
:1043E00057A207CA8DE80700012C09D0022C0ED174
:1043F00003AA0B2140F68220FEF7B4FE06B010BDE2
:104400006A460B2140F68220FEF7ACFEF6E74FF03D
:10441000FF30F3E72DE9F04F8DB00746884615468B
:104420009946DDE9166B0024002030804049887BE6
:104430005A4605A9FEF7F9F918B1601E0DB0BDE89E
:10444000F08F3B48807A00F01400002861D09DF87E
:10445000140000069DF8151040EA01409DF8161062
:1044600040EA01209DF81710084328609DF81800C5
:1044700000069DF8191040EA01409DF81A1040EA24
:1044800001209DF81B10084368609DF81C00000681
:104490009DF81D1040EA01409DF81E1040EA0120E1
:1044A0009DF81F100843A8609DF8200000069DF8A5
:1044B000211040EA01409DF8221040EA01209DF8B9
:1044C00023100843E86004F11000C4B22868001407
:1044D0000190686800140290A86800140390E868CE
:1044E0000014049001984043029901FB01000399D4
:1044F00001FB0100049901FB010ABAF1706F02DBB4
:10450000BAF1885F22DDFDF787FA00203080401E77
:1045100094E721E0B8AAB38DB4980D355D00000092
:10452000B8AAAAAAB088C3C5C700000009E3CA0296
:1045300044010020D8B1B9F38BA391B609B4D900D6
:10454000DAB1B9F38BA391B6DAB4DA00B6F90000A8
:1045500040F48070308000BF3448807A00F0400022
:1045600020B305A9601C085C095D40EA012000B287
:10457000A8F8000005A9E01C095C05AAA01C105CB5
:1045800041EA002000B2A8F8020005A9601D095CFC
:10459000201D105C41EA002000B2A8F80400A01D14
:1045A000C4B2B6F9000040F0080030801F484089CE
:1045B00000F4C07008B305A9601C085C095D40EAFE
:1045C000012000B2388005A9E01C095C05AAA01CE6
:1045D000105C41EA002000B2788005A9601D095CEA
:1045E000201D105C41EA002000B2B880A01DC4B2BA
:1045F000B6F9000040F0700030800C48807A00F07E
:10460000030018B105A90819FFF7B4FE4846FDF7E5
:1046100070FD002012E70146044801600020704749
:10462000014602484160002070470000440100201C
:1046300000B589B00121084600F0E2FF01214A4897
:1046400000F0F3FD0121022000F0E7FF012110201E
:1046500000F0D6FF0121042000F0DFFF0121082037
:1046600000F0CEFFC020ADF8080003208DF80A004E
:1046700004208DF80B0002A93C4800F005FD02A9BA
:104680003B4800F001FD1D208DF8040000208DF84E
:1046900005008DF8060001208DF8070001A800F044
:1046A0002AFC1E208DF8040001A800F024FC3148EB
:1046B00001F00AF8304801F007F84FF6FF70ADF846
:1046C0001C000020ADF81800ADF81E00ADF81A006F
:1046D00006A9284801F0CCF806A9274801F0C8F837
:1046E00002231A460321234801F0D1FC03A801F05C
:1046F000FEFB0620ADF8140003A91E4801F04BFB99
:1047000002231A4603211C4801F0C1FC03A801F052
:10471000EEFB0620ADF8140003A9174801F03BFB9F
:104720000121144801F0C6FE01221146114801F092
:1047300016FC0121104801F0BDFE012211460E4871
:1047400001F00DFC42F210700A49243108800A4938
:10475000243108800121074801F0E6FB01210648C9
:1047600001F0E2FB09B000BD000C1A00000C014092
:104770000010014000040040000800400020BA4939
:10478000C861086208614861886108600021B64A12
:104790009160D16070470020B449C8610862086127
:1047A0004861886108600021B04A9160D16070471B
:1047B000AD4908607047AD4908607047AA4B186161
:1047C00059619A617047A94B186159619A617047A4
:1047D0002DE9F04F89B08346A3480168584604F09C
:1047E00058F88246504603F02BFD04469E48D0E917
:1047F00002633246204602F07DFF9B4AC2E9020175
:10480000104600229A4BD0E90241204603F006FBF5
:1048100005D200219648944AC2E902100DE092495F
:10482000D1E902410022934B204603F0BDF904D2A6
:10483000002190488C4AC2E902108B48C169504659
:1048400004F032F808908848C0F81CA00146886936
:10485000089903F021FF064603F0F2FCCDE90601BA
:104860008149486903F0ECFCCDE900017E48D0E9BC
:1048700002633246009803F0D3F9CDE904017A4986
:104880000869514603F008FF064603F0D9FCCDE95C
:104890000201DDE9042302F02DFF0446DDE90623D1
:1048A00002F028FF804603F039F909B0BDE8F08F27
:1048B0002DE9F04F89B083466C480168584603F0F3
:1048C000E8FF8246504603F0BBFC04466748D0E947
:1048D00002633246204602F00DFF644AC2E902013B
:1048E00010460022624BD0E90241204603F096FABE
:1048F00005D200215E485D4AC2E902100DE05B4925
:10490000D1E9024100225B4B204603F04DF904D26D
:1049100000215848554AC2E902105448C16950461E
:1049200003F0C2FF08905148C0F81CA001468869F6
:10493000089903F0B1FE064603F082FCCDE90601BA
:104940004A49486903F07CFCCDE900014748D0E9B9
:1049500002633246009803F063F9CDE9040143494C
:104960000869514603F098FE064603F069FCCDE95C
:104970000201DDE9042302F0BDFE0446DDE9062361
:1049800002F0B8FE804603F0C9F809B0BDE8F08F28
:104990002DE9FF5F044689464FF083400390364877
:1049A000029004EB0901484203F016FE3349086007
:1049B0003348006803F044FC07464FF06632314B41
:1049C00003F02EF9054602F063FE2D4908602B48DE
:1049D000006803F035FC4FF033322B4BCDE900017A
:1049E00003F01EF905460E462548006803F028FC32
:1049F00007462A46334602F07DFE824602F048FE14
:104A00001F490860084601682048006803F044FC1C
:104A10001E4908601E491D48006803F009FF02D8BE
:104A20001B481A4908601B491848006803F000FE3B
:104A300002D818481549086014480299006803F024
:104A40002BFE05460E480399006803F025FE064636
:104A5000294603F021FC104908600846006803F06D
:104A60007FFD04B0BDE8F09F5801002080010020C8
:104A700000709740007097C00AD7A33D0001002046
:104A8000040100206666E63F3333D33F080100206F
:104A900000401C4600401CC6FC00002010B56FF012
:104AA000040000F072FA2E4800682E49B0FBF1F0C5
:104AB0002D4908700846007800EB4001C1EBC0109A
:104AC0004FF6FF7101EAC0002849088010BD014679
:104AD000254A12784A434FF0E0235A6100229A6136
:104AE0001A46126942F001021A6100BF4FF0E0223B
:104AF000106900F001021AB100F48032002AF5D0EA
:104B00004FF0E022126922F001024FF0E0231A6117
:104B100000229A6170470146144A12884A434FF0B6
:104B2000E0235A6100229A611A46126942F001029A
:104B30001A6100BF4FF0E022106900F001021AB1C3
:104B400000F48032002AF5D04FF0E022126922F002
:104B500001024FF0E0231A6100229A6170470000C1
:104B60000C00002000127A000C0100200E01002031
:104B7000014600BF704700BF4D4A128802F0400254
:104B8000002AF9D0C2B24A4B1B1D1A80704710B5DB
:104B900086B00446012144F2040000F031FD4FF4D8
:104BA0000070ADF8140003208DF8160018208DF861
:104BB000170005A93F4800F067FA4FF48060ADF890
:104BC000140004208DF8170005A93A4800F05CFA9B
:104BD00025208DF8000003208DF801008DF80200DB
:104BE00001208DF80300684600F085F9019400204B
:104BF000ADF80800ADF80A00ADF80C00ADF81000F3
:104C00000C20ADF80E0001A9294801F0AEFC0122EC
:104C100040F22551264801F040FD0121244801F0D1
:104C200030FD06B010BD10B540F22551204801F00E
:104C300019FE00283AD01E4801F094FDC4B21E4867
:104C4000008800F40040F8B91B48008800F4804058
:104C500090B10A2C03D000201749088026E016489E
:104C6000008840F400401449088000200988C1F3FE
:104C70000D01124A505419E00D2C06D10E4800883F
:104C800040F480400C49088010E00B480088C0F3D5
:104C90000D000A490C5408480088401C0649088049
:104CA00008460088C72801DD0020088010BD0000EC
:104CB000003801400008014014010020A801002034
:104CC0007FB505460C460121082000F0A6FCADF892
:104CD0000850ADF804400020ADF80A00ADF8060019
:104CE00001A9654800F0C4FD01221146624801F0A7
:104CF00036F932208DF8000001208DF801008DF882
:104D000002008DF80300684600F0F5F801215A48CA
:104D100001F00AF97FBD10B557481030008800F047
:104D2000010000287ED05548007800287BD05449E7
:104D30005448FEF7D4FC00281CD153480078401C8E
:104D4000514908705148006808B9012000E000206E
:104D50004E4908604B48006803F002FC041E01DB6A
:104D6000204600E060422D2805DD002048490880EB
:104D70004849088069E043480068FFF799FD044608
:104D800003F02AFC444908603F480078052819DBF5
:104D900000203D490870414A1288A2F51C51103983
:104DA0003F4A1288A2F51C501038FFF7F1FD044667
:104DB00003F012FC3B49086042F210703849088049
:104DC00036490880374801683348006803F064FAC0
:104DD000044603F0C5FB00B22E4908803148016843
:104DE0002D48006803F058FA044603F0B9FB00B2FE
:104DF000274908802748B0F9000041F6BC318842B5
:104E000002DD0846234908802248B0F900002649FF
:104E1000884203DA4EF244401E4908801C48B0F92B
:104E2000000001E01EE01BE041F6BC31884202DDDB
:104E30000846174908801648B0F900001A49884208
:104E400003DA4EF24440124908801248B0F90000DB
:104E5000FCF7FEF80E48B0F90000FCF7E9F801E0B5
:104E6000FCF7A8F804481030008820F0010002493F
:104E70001031088010BD0000000C00400800002028
:104E80001C010020180100202801002088812242F6
:104E90002C0100202A0100202001002024040040D1
:104EA000240800402401002044E4FFFF0948804713
:104EB00009480047FEE7FEE7FEE7FEE7FEE7FEE7FC
:104EC000FEE7FEE7FEE7FEE704480549054A064B14
:104ED00070470000AF04000831010008D002002034
:104EE000D0080020D0040020D00400203149014324
:104EF000314A1160704770B5002100230F22C47839
:104F000004B32D4C246804F4E064C4F5E064210A81
:104F1000C1F10403CA40447804FA03F184781440D0
:104F200021430901254C0678A155047804F01F059A
:104F30000124AC4005786D11AD0005F1E025C5F800
:104F4000004109E0047804F01F050124AC401C4D29
:104F50000678761145F8264070BD1A4A0A40024389
:104F6000154B1B1F1A60704739B1134A121D126886
:104F70000243114B1B1D1A6006E00F4A121D1268F6
:104F800082430D4B1B1D1A607047042808D14FF057
:104F9000E021096941F004014FF0E022116107E0CE
:104FA0004FF0E021096921F004014FF0E022116186
:104FB000704700000000FA050CED00E000E400E09E
:104FC00080E100E080FFFF1F10B50446CC4884421A
:104FD00008D10121042000F02DFB0021042000F065
:104FE00029FB46E0C748844208D10121082000F08F
:104FF00021FB0021082000F01DFB3AE0C24884425A
:1050000008D10121102000F015FB0021102000F034
:1050100011FB2EE0BD48844208D10121202000F080
:1050200009FB0021202000F005FB22E0B848844263
:1050300008D10121402000F0FDFA0021402000F0BD
:10504000F9FA16E0B348844208D10121802000F02B
:10505000F1FA0021802000F0EDFA0AE0AE48844227
:1050600007D10121801500F0E5FA0021A01500F01C
:10507000E1FA10BD10B50121084600F0DBFA00216D
:10508000012000F0D7FA10BD2DE9F04102460025BD
:105090000026002000230024002791F803C00CF014
:1050A0000F0591F803C00CF0100CBCF1000F03D0F9
:1050B00091F802C04CEA050591F800C0BCF1000F60
:1050C00031D0146800202BE04FF0010C0CFA00F3F3
:1050D000B1F800C00CEA03069E4220D183004FF0D5
:1050E0000F0C0CFA03F7BC4305FA03FC4CEA04046A
:1050F00091F803C0BCF1280F06D14FF0010C0CFA57
:1051000000FCC2F814C00AE091F803C0BCF1480FDB
:1051100005D14FF0010C0CFA00FCC2F810C0401C85
:105120000828D1D31460B1F800C0BCF1FF0F34DD02
:10513000546800202EE000F1080C4FF0010808FA36
:105140000CF3B1F800C00CEA03069E4221D18300A3
:105150004FF00F0C0CFA03F7BC4305FA03FC4CEAC2
:10516000040491F803C0BCF1280F05D100F1080C2C
:1051700008FA0CF8C2F8148091F803C0BCF1480F8B
:1051800007D100F1080C4FF0010808FA0CF8C2F83A
:105190001080401C0828CED35460BDE8F0814FF643
:1051A000FF710180022181700421C17070470246A5
:1051B000002093680B400BB1012000E000207047F5
:1051C0000146886880B2704702460020D3680B40D1
:1051D0000BB1012000E0002070470146C86880B292
:1051E000704701617047416170470AB1016100E099
:1051F00041617047C16070474FF480320A43826159
:105200008161826182698269704702460020434B56
:1052100018684FF68073184040EA021008433F4B6D
:10522000186070473E49C8617047F0B50A460023D0
:1052300000240021002500F00046B6F1004F02D105
:10524000364EF16901E0354E7168C0F3034583B213
:1052500000F44016B6F5401F08D121F070612F4EC2
:10526000766826F070662D4F7E6012E000F480169E
:10527000B6F5801F06D1032606FA05F4A14341F0D6
:10528000706106E0460D360103FA06F6B14341F0BF
:10529000706122B1460D360103FA06F6314300F083
:1052A0000046B6F1004F02D11C4EF16101E01B4EE9
:1052B0007160F0BD30B500228B071C0F0F2303FA7D
:1052C00004F2164B08338C1053F824309343134CDC
:1052D00008348D1044F8253023468C1053F82430C0
:1052E0008C07240F00FA04F423430C4C08348D106F
:1052F00044F8253030BD0A49DC31086070470000B1
:1053000000080140000C0140001001400014014061
:1053100000180140001C0140002001400000014035
:1053200000002042DF48006840F00100DD490860CD
:1053300008464068DC490840DA4948600846006889
:10534000DA490840D74908600846006820F4802000
:1053500008600846406820F4FE0048604FF41F00D3
:1053600088607047CF49096821F48031CD4A1160C7
:105370001146096821F480211160B0F5803F03D007
:10538000B0F5802F0ED106E0C649096841F480319E
:10539000C44A116007E0C349096841F4A021C14A29
:1053A000116000E000BF00BF704710B50146002249
:1053B000002300204A11012A02D1BA4C236806E0DA
:1053C000022A02D1B74C236A01E0B64C636A01F0AD
:1053D0001F02012494401C400CB1012000E0002079
:1053E00010BD38B5002000900024002500BF3120FA
:1053F000FFF7DBFF05460098401C00900098B0F5D1
:10540000A06F01D0002DF2D03120FFF7CEFF08B100
:10541000012400E00024204638BD01460020A14AB6
:10542000106820F0F80040EAC10010607047A04901
:1054300008607047024600209A4B586820F47C10A0
:1054400042EA01031843974B586070479849086631
:10545000704701460020934A506820F0030008433B
:10546000506070478F48406800F00C00704701465C
:1054700000208C4A506820F0F000084350607047CC
:1054800001460020874A506820F4E06008435060DD
:10549000704701460020834A506820F4605040EA7B
:1054A000C1005060704729B17E4A527A02437D4B59
:1054B0005A7204E07B4A527A82437A4B5A7270479E
:1054C0007B49D8310860704701460020754A506812
:1054D00020F440400843506070470021714A203258
:1054E0001170704A82F82010012802D004280AD1D5
:1054F00004E001216B4A2032117005E00521694A60
:105500002032117000E000BF00BF70476949086099
:1055100070476449096A0143624A116270476549EC
:1055200044390860704730B5002100220024002370
:105530005C4D6D6805F00C0121B1042905D00829E6
:1055400023D105E05C4D056022E05B4D05601FE066
:10555000544D6D6805F47012524D6D6805F4803439
:10556000022505EB92421CB9544D554305600BE0F2
:105570004C4D6D6805F400351DB1504D5543056027
:1055800002E04D4D5543056002E04B4D056000BF04
:1055900000BF444D6D6805F0F0010909484D6B5C92
:1055A0000568DD4045603F4D6D6805F4E061090A1E
:1055B000434D6B5C4568DD4085603A4D6D6805F490
:1055C0006051C90A3E4D6B5C4568DD40C560354D94
:1055D0006D6805F44041890B3A4D6B5CC568B5FBBD
:1055E000F3F5056130BD29B12E4A526902432D4BB6
:1055F0005A6104E02B4A526982432A4B5A61704730
:1056000029B1284A92690243264B9A6104E0254A4F
:1056100092698243234B9A61704729B1214AD2692A
:105620000243204BDA6104E01E4AD26982431D4BDB
:10563000DA61704729B11B4AD2680243194BDA601C
:1056400004E0184AD2688243164BDA60704729B1E9
:10565000144A12690243134B1A6104E0114A126999
:105660008243104B1A6170471249403908607047F5
:105670000F49C86470470B49C87170470948406AB0
:1056800040F0807007494862704701460020054A93
:1056900092680A400AB1012000E0002070470149E9
:1056A00088727047001002400000FFF8FFFFF6FE0E
:1056B000000042428004424200127A0000093D008C
:1056C0002E0100203E01002010B50446FE48844211
:1056D00008D10121C014FFF7ADFF0021E014FFF74E
:1056E000A9FFC4E0B4F1804F08D101210846FFF7BB
:1056F000AEFF00210120FFF7AAFFB8E0F348844283
:1057000008D101210220FFF7A2FF00210220FFF7AC
:105710009EFFACE0EE48844208D101210420FFF74F
:1057200096FF00210420FFF792FFA0E0E9488442A1
:1057300008D101210820FFF78AFF00210820FFF788
:1057400086FF94E0E448844208D101211020FFF74D
:105750007EFF00211020FFF77AFF88E0DF488442B7
:1057600008D101212020FFF772FF00212020FFF740
:105770006EFF7CE0DA48844208D101214014FFF733
:1057800059FF00216014FFF755FF70E0D5488442AF
:1057900009D10121C804FFF74DFF00214FF400207B
:1057A000FFF748FF63E0D048844209D10121080592
:1057B000FFF740FF00214FF48010FFF73BFF56E05A
:1057C000CA48844209D101214805FFF733FF00216F
:1057D0004FF40010FFF72EFF49E0C548844208D17E
:1057E00001214020FFF733FF00214020FFF72FFF6A
:1057F0003DE0C048844208D101218020FFF727FF07
:1058000000218020FFF723FF31E0BB48844208D10C
:1058100001218015FFF71BFF0021A015FFF717FFDF
:1058200025E0B648844209D101210804FFF702FFB0
:1058300000214FF48030FFF7FDFE18E0B0488442AD
:1058400009D101214804FFF7F5FE00214FF4003093
:10585000FFF7F0FE0BE0AB48844208D10121880439
:10586000FFF7E8FE00214FF48020FFF7E3FE10BDB4
:1058700000220288944B98420ED0994B98420BD04C
:10588000B0F1804F08D0914B984205D0904B984290
:1058900002D0904B984204D14FF68F731A404B8838
:1058A0001A438D4B984207D08C4B984204D04FF648
:1058B000FF431A40CB881A4302808B8883850B886C
:1058C0000385814B98420BD0854B984208D08B4B77
:1058D000984205D08A4B984202D08A4B984201D117
:1058E0000B7A038601238382704770B5002400225F
:1058F0000023058C4FF6FE7635400584028C8388A4
:10590000048B4FF68F752C40B51E2C400D882C4310
:10591000751E2A400D892A434D882A436A4DA842A4
:105920000BD06F4DA84208D0744DA84205D0744DDD
:10593000A84202D0734DA84213D14FF6F7752A4002
:105940004D892A434FF6FB752A408D882A434FF62E
:10595000FF652B404FF6FF552B408D892B43CD899A
:105960002B4383800483CD888586028470BD70B507
:10597000002400220023058C4FF6EF763540058485
:10598000028C8388048B48F6FF752C404FF6FF4548
:105990002C400D884FF6FF7606EA05252C434FF67E
:1059A000DF752A400D8906EA05152A434D8806EA67
:1059B00005152A43444DA84202D0494DA8421DD1A5
:1059C0004FF67F752A404D894FF6FF7606EA05159A
:1059D0002A434FF6BF752A408D8806EA05152A43EB
:1059E0004FF6FF352B404FF2FF752B408D8906EAAD
:1059F00085052B43CD8906EA85052B4383800483E7
:105A0000CD880587028470BD70B500240022002374
:105A1000058C4FF6FF6635400584028C8388848BA5
:105A20004FF68F752C404FF6FC752C400D882C439B
:105A30004FF6FF552A400D894FF6FF7606EA0525F9
:105A40002A434D8806EA05252A431F4DA84202D065
:105A5000234DA8421DD14FF2FF752A404D894FF6C4
:105A6000FF7606EA05252A434FF6FF352A408D8842
:105A700006EA05252A434EF6FF752B404DF6FF75C5
:105A80002B408D8906EA05152B43CD8906EA0515BD
:105A90002B4383808483CD888587028470BD70B555
:105AA000002200230024058C4EF6FF763540058445
:105AB000038C8488828B48F6FF752A404FF6FF4599
:105AC0002A400D8820E00000002C01400004004026
:105AD00000080040000C004000100040001400408E
